03300000        2010851328000175345170130030879     007570007           CURSO ADONAI LTDA             BANCO SANTANDER (BRASIL) S/A            225022016      000004040                                                                          
03311781T01  040 2010851328000175007570007           345170130030879     CURSO ADONAI LTDA                                                                                             0000000425022016                                         
0331178300001T 06345170130030879        00000001651822003965-06      0503201600000000003950023715460                         002000013120448702VANESSA AREBRA K. K. MARINS             01300308790000000000000000400000000                      
0331178300002U 060000000000000000000000000000000000000000000000000000000000000000000000395000000000000395000000000000000000000000000000002502201629022016000000000000000000000000000                              000                           
0331178300003T 02345170130030879        00000001665102003593-06      0503201600000000003375003334517                         002000013015748726DAYANA DOS SANTOS                       01300308790000000000002480000000000                      
0331178300004U 020000000000000000000000000000000000000000000000000000000000000000000000000000000000000000000000000000000000000000000000002502201625022016000000000000000000000000000                              000                           
03311785         0000040003570000000001371265000000000000000000000000000000000000000000000000000000000000000000000000000003                                                                                                                     
03311789         000001000008                                                                                                                                                                                                                   
