03300000        2010851328000175345170130030879     007570007           CURSO ADONAI LTDA             BANCO SANTANDER (BRASIL) S/A            224022016      000003040                                                                          
03359151T01  040 2010851328000175007570007           345170130030879     CURSO ADONAI LTDA                                                                                             0000000324022016                                         
0335915300001T 02345170130030879        00000001629142003252-06      0503201600000000003750003334517                         002000013256323766ALLEX CAMPOS CARDIANO                   01300308790000000000002480000000000                      
0335915300002U 020000000000000000000000000000000000000000000000000000000000000000000000000000000000000000000000000000000000000000000000002402201624022016000000000000000000000000000                              000                           
0335915300003T 02345170130030879        00000001649762003266-06      0503201600000000003950003334517                         002000012839382784JESSICA APARECIDA L. B. ROSA            01300308790000000000002480000000000                      
0335915300004U 020000000000000000000000000000000000000000000000000000000000000000000000000000000000000000000000000000000000000000000000002402201624022016000000000000000000000000000                              000                           
0335915300005T 02345170130030879        00000001650002003950-06      0503201600000000003950003334517                         002000015478284718KISSIA CAMILA B. R. SILVA               01300308790000000000002480000000000                      
0335915300006U 020000000000000000000000000000000000000000000000000000000000000000000000000000000000000000000000000000000000000000000000002402201624022016000000000000000000000000000                              000                           
0335915300007T 02345170130030879        00000001629222003697-06      1503201600000000003750003334517                         002000011883201730ANGELICA MORAIS DOS SANTOS              01300308790000000000002480000000000                      
0335915300008U 020000000000000000000000000000000000000000000000000000000000000000000000000000000000000000000000000000000000000000000000002402201624022016000000000000000000000000000                              000                           
0335915300009T 02345170130030879        00000001629302003987-06      0503201600000000003950003334517                         002000014464327770BRUNO SILVEIRA DE MELO                  01300308790000000000002480000000000                      
0335915300010U 020000000000000000000000000000000000000000000000000000000000000000000000000000000000000000000000000000000000000000000000002402201624022016000000000000000000000000000                              000                           
0335915300011T 02345170130030879        00000001629492004033-06      0503201600000000003950003334517                         002000013268771785CAROLINA JOAQUIM E. SANTO               01300308790000000000002480000000000                      
0335915300012U 020000000000000000000000000000000000000000000000000000000000000000000000000000000000000000000000000000000000000000000000002402201624022016000000000000000000000000000                              000                           
0335915300013T 02345170130030879        00000001629572003988-06      0503201600000000003950003334517                         002000013790965707CIRO ANTONIO SILVA JR.                  01300308790000000000002480000000000                      
0335915300014U 020000000000000000000000000000000000000000000000000000000000000000000000000000000000000000000000000000000000000000000000002402201624022016000000000000000000000000000                              000                           
0335915300015T 02345170130030879        00000001629652003614-06      0503201600000000003750003334517                         002000014694575716DEBORA CRYSTINE DE S. SANTOS            01300308790000000000002480000000000                      
0335915300016U 020000000000000000000000000000000000000000000000000000000000000000000000000000000000000000000000000000000000000000000000002402201624022016000000000000000000000000000                              000                           
0335915300017T 02345170130030879        00000001650422003952-06      0503201600000000003950003334517                         002000013312009707MAGNA DE ANDRADE PIREDA                 01300308790000000000002480000000000                      
0335915300018U 020000000000000000000000000000000000000000000000000000000000000000000000000000000000000000000000000000000000000000000000002402201624022016000000000000000000000000000                              000                           
0335915300019T 02345170130030879        00000001651232003959-06      0503201600000000002950003334517                         002000012455128709RODRIGO CORREA FREIRE                   01300308790000000000002480000000000                      
0335915300020U 020000000000000000000000000000000000000000000000000000000000000000000000000000000000000000000000000000000000000000000000002402201624022016000000000000000000000000000                              000                           
0335915300021T 02345170130030879        00000001651312003961-06      0503201600000000003950003334517                         002000013675260780SARA CAROLINA M. CRUZ                   01300308790000000000002480000000000                      
0335915300022U 020000000000000000000000000000000000000000000000000000000000000000000000000000000000000000000000000000000000000000000000002402201624022016000000000000000000000000000                              000                           
0335915300023T 02345170130030879        00000001651902003966-06      0503201600000000003950003334517                         002000013078646785VINICIO DA SILVA PAULO                  01300308790000000000002480000000000                      
0335915300024U 020000000000000000000000000000000000000000000000000000000000000000000000000000000000000000000000000000000000000000000000002402201624022016000000000000000000000000000                              000                           
0335915300025T 02345170130030879        00000001652202004140-04      0503201600000000003950003334517                         002000010092774725ALEXANDRE CLEBER S. FARIA               01300308790000000000002480000000000                      
0335915300026U 020000000000000000000000000000000000000000000000000000000000000000000000000000000000000000000000000000000000000000000000002402201624022016000000000000000000000000000                              000                           
0335915300027T 02345170130030879        00000001652392004141-04      0503201600000000003950003334517                         002000088806537253AMANDA ABNADER M. SODRE                 01300308790000000000002480000000000                      
0335915300028U 020000000000000000000000000000000000000000000000000000000000000000000000000000000000000000000000000000000000000000000000002402201624022016000000000000000000000000000                              000                           
0335915300029T 02345170130030879        00000001652472004182-04      0503201600000000003950003334517                         002000022456804805ANA PAULA GUBERNATI A. SALOES           01300308790000000000002480000000000                      
0335915300030U 020000000000000000000000000000000000000000000000000000000000000000000000000000000000000000000000000000000000000000000000002402201624022016000000000000000000000000000                              000                           
0335915300031T 02345170130030879        00000001652552003171-04      0503201600000000003950003334517                         002000009380993706ANDREIA LOUZADA M. SILVA                01300308790000000000002480000000000                      
0335915300032U 020000000000000000000000000000000000000000000000000000000000000000000000000000000000000000000000000000000000000000000000002402201624022016000000000000000000000000000                              000                           
0335915300033T 02345170130030879        00000001652632004189-04      0503201600000000003950003334517                         002000009144750706BIANCA BARTOLO VIVES                    01300308790000000000002480000000000                      
0335915300034U 020000000000000000000000000000000000000000000000000000000000000000000000000000000000000000000000000000000000000000000000002402201624022016000000000000000000000000000                              000                           
0335915300035T 02345170130030879        00000001652712004143-04      0503201600000000003950003334517                         002000011402484720BRUNO LUIZ B. ISSA                      01300308790000000000002480000000000                      
0335915300036U 020000000000000000000000000000000000000000000000000000000000000000000000000000000000000000000000000000000000000000000000002402201624022016000000000000000000000000000                              000                           
0335915300037T 02345170130030879        00000001652802004144-04      0503201600000000003000003334517                         002000005924604799BRUNO ZAYAT SANT'ANNA                   01300308790000000000002480000000000                      
0335915300038U 020000000000000000000000000000000000000000000000000000000000000000000000000000000000000000000000000000000000000000000000002402201624022016000000000000000000000000000                              000                           
0335915300039T 02345170130030879        00000001652982004145-04      0503201600000000003950003334517                         002000012408120780CAROLINA REGINA D. C. NUNES             01300308790000000000002480000000000                      
0335915300040U 020000000000000000000000000000000000000000000000000000000000000000000000000000000000000000000000000000000000000000000000002402201624022016000000000000000000000000000                              000                           
0335915300041T 02345170130030879        00000001653012004146-04      0503201600000000002400003334517                         002000013024785752DAIANA DE FREITAS MOZER                 01300308790000000000002480000000000                      
0335915300042U 020000000000000000000000000000000000000000000000000000000000000000000000000000000000000000000000000000000000000000000000002402201624022016000000000000000000000000000                              000                           
0335915300043T 02345170130030879        00000001653102004162-04      0503201600000000003400003334517                         002000070735417253ELTON DO NASCIMENTO BRANDAO             01300308790000000000002480000000000                      
0335915300044U 020000000000000000000000000000000000000000000000000000000000000000000000000000000000000000000000000000000000000000000000002402201624022016000000000000000000000000000                              000                           
0335915300045T 02345170130030879        00000001653282004191-04      0503201600000000003950003334517                         002000013084052786JESSICA MENDES DA SILVA                 01300308790000000000002480000000000                      
0335915300046U 020000000000000000000000000000000000000000000000000000000000000000000000000000000000000000000000000000000000000000000000002402201624022016000000000000000000000000000                              000                           
0335915300047T 02345170130030879        00000001653362004147-04      0503201600000000003950003334517                         002000014741582779JESSIKA CHRISTINE S. ABREU              01300308790000000000002480000000000                      
0335915300048U 020000000000000000000000000000000000000000000000000000000000000000000000000000000000000000000000000000000000000000000000002402201624022016000000000000000000000000000                              000                           
0335915300049T 02345170130030879        00000001653442002220-04      0503201600000000003950003334517                         002000010660953706KARINA GOMES DA COSTA                   01300308790000000000002480000000000                      
0335915300050U 020000000000000000000000000000000000000000000000000000000000000000000000000000000000000000000000000000000000000000000000002402201624022016000000000000000000000000000                              000                           
0335915300051T 02345170130030879        00000001653522004148-04      1003201600000000003400003334517                         002000013600507796KATLIN CAROLINE F. BOTELHO              01300308790000000000002480000000000                      
0335915300052U 020000000000000000000000000000000000000000000000000000000000000000000000000000000000000000000000000000000000000000000000002402201624022016000000000000000000000000000                              000                           
0335915300053T 02345170130030879        00000001653602004149-04      0503201600000000003950003334517                         002000010194591743LEANDRO DOS SANTOS MIGUEL               01300308790000000000002480000000000                      
0335915300054U 020000000000000000000000000000000000000000000000000000000000000000000000000000000000000000000000000000000000000000000000002402201624022016000000000000000000000000000                              000                           
0335915300055T 02345170130030879        00000001653792004150-04      0503201600000000003950003334517                         002000010353838705LETICIA LIMA M. SILVA                   01300308790000000000002480000000000                      
0335915300056U 020000000000000000000000000000000000000000000000000000000000000000000000000000000000000000000000000000000000000000000000002402201624022016000000000000000000000000000                              000                           
0335915300057T 02345170130030879        00000001653872004175-04      0503201600000000003950003334517                         002000022028298812MAILA DURAZZO NEGRISOLO                 01300308790000000000002480000000000                      
0335915300058U 020000000000000000000000000000000000000000000000000000000000000000000000000000000000000000000000000000000000000000000000002402201624022016000000000000000000000000000                              000                           
0335915300059T 02345170130030879        00000001653952004195-04      1503201600000000003950003334517                         002000011462487769MARCELO FAVATTO EUZEBIO                 01300308790000000000002480000000000                      
0335915300060U 020000000000000000000000000000000000000000000000000000000000000000000000000000000000000000000000000000000000000000000000002402201624022016000000000000000000000000000                              000                           
0335915300061T 02345170130030879        00000001654092004174-04      0503201600000000003950003334517                         002000013961173770MARIA CAROLINA F. BRITO PENA            01300308790000000000002480000000000                      
0335915300062U 020000000000000000000000000000000000000000000000000000000000000000000000000000000000000000000000000000000000000000000000002402201624022016000000000000000000000000000                              000                           
0335915300063T 02345170130030879        00000001654172001198-04      0503201600000000003750003334517                         002000005309035710PAULO SERGIO S. TORQUATO                01300308790000000000002480000000000                      
0335915300064U 020000000000000000000000000000000000000000000000000000000000000000000000000000000000000000000000000000000000000000000000002402201624022016000000000000000000000000000                              000                           
0335915300065T 02345170130030879        00000001654252000551-04      0503201600000000003950003334517                         002000009039411719PRISCILA PINHEIRO LAPROVITA             01300308790000000000002480000000000                      
0335915300066U 020000000000000000000000000000000000000000000000000000000000000000000000000000000000000000000000000000000000000000000000002402201624022016000000000000000000000000000                              000                           
0335915300067T 02345170130030879        00000001654332004155-04      0503201600000000003950003334517                         002000013080306732REBECA GOMES FERREIRA                   01300308790000000000002480000000000                      
0335915300068U 020000000000000000000000000000000000000000000000000000000000000000000000000000000000000000000000000000000000000000000000002402201624022016000000000000000000000000000                              000                           
0335915300069T 02345170130030879        00000001654412004156-04      0503201600000000003950003334517                         002000005469621731RODRIGO AMORIM DOS SANTOS               01300308790000000000002480000000000                      
0335915300070U 020000000000000000000000000000000000000000000000000000000000000000000000000000000000000000000000000000000000000000000000002402201624022016000000000000000000000000000                              000                           
0335915300071T 02345170130030879        00000001654502004157-04      0503201600000000003950003334517                         002000036464984802SARKIS MELHEM JAMIL F                   01300308790000000000002480000000000                      
0335915300072U 020000000000000000000000000000000000000000000000000000000000000000000000000000000000000000000000000000000000000000000000002402201624022016000000000000000000000000000                              000                           
0335915300073T 02345170130030879        00000001654682004158-04      1003201600000000003500003334517                         002000012287456767TARCIA CLARISSA A. SOUZA                01300308790000000000002480000000000                      
0335915300074U 020000000000000000000000000000000000000000000000000000000000000000000000000000000000000000000000000000000000000000000000002402201624022016000000000000000000000000000                              000                           
0335915300075T 02345170130030879        00000001654762004160-04      0503201600000000003950003334517                         002000005803008702VINICIUS VERDAN SALES                   01300308790000000000002480000000000                      
0335915300076U 020000000000000000000000000000000000000000000000000000000000000000000000000000000000000000000000000000000000000000000000002402201624022016000000000000000000000000000                              000                           
0335915300077T 02345170130030879        00000001654842004183-04      0503201600000000003950003334517                         002000008180046737WANUCIA VERGASTA L. GOMES               01300308790000000000002480000000000                      
0335915300078U 020000000000000000000000000000000000000000000000000000000000000000000000000000000000000000000000000000000000000000000000002402201624022016000000000000000000000000000                              000                           
0335915300079T 02345170130030879        00000001654922000872-05      0503201600000000003750003334517                         002000000373024509AILAN ALMEIDA BARBOSA                   01300308790000000000002480000000000                      
0335915300080U 020000000000000000000000000000000000000000000000000000000000000000000000000000000000000000000000000000000000000000000000002402201624022016000000000000000000000000000                              000                           
0335915300081T 02345170130030879        00000001655062001315-05      0503201600000000003950003334517                         002000010893934747ALLAN PATRICK A. OLIVEIRA               01300308790000000000002480000000000                      
0335915300082U 020000000000000000000000000000000000000000000000000000000000000000000000000000000000000000000000000000000000000000000000002402201624022016000000000000000000000000000                              000                           
0335915300083T 02345170130030879        00000001655142004108-05      0503201600000000003950003334517                         002000001382650469ANDRE PAULO D. ARAUJO                   01300308790000000000002480000000000                      
0335915300084U 020000000000000000000000000000000000000000000000000000000000000000000000000000000000000000000000000000000000000000000000002402201624022016000000000000000000000000000                              000                           
0335915300085T 02345170130030879        00000001655222004088-05      1503201600000000003950003334517                         002000015738651766CAROLINE LUSTOSA DA SILVA               01300308790000000000002480000000000                      
0335915300086U 020000000000000000000000000000000000000000000000000000000000000000000000000000000000000000000000000000000000000000000000002402201624022016000000000000000000000000000                              000                           
0335915300087T 02345170130030879        00000001655302004089-05      0503201600000000003950003334517                         002000013314032781DANIEL CORREA MAIA                      01300308790000000000002480000000000                      
0335915300088U 020000000000000000000000000000000000000000000000000000000000000000000000000000000000000000000000000000000000000000000000002402201624022016000000000000000000000000000                              000                           
0335915300089T 02345170130030879        00000001655492003393-05      0503201600000000003950003334517                         002000011193029783DANIELLE ROCHA DE LIMA                  01300308790000000000002480000000000                      
0335915300090U 020000000000000000000000000000000000000000000000000000000000000000000000000000000000000000000000000000000000000000000000002402201624022016000000000000000000000000000                              000                           
0335915300091T 02345170130030879        00000001655572004090-05      0503201600000000003950003334517                         002000010351815767EVELLYN DE ASSIS PINTO                  01300308790000000000002480000000000                      
0335915300092U 020000000000000000000000000000000000000000000000000000000000000000000000000000000000000000000000000000000000000000000000002402201624022016000000000000000000000000000                              000                           
0335915300093T 02345170130030879        00000001655652004185-05      0503201600000000003950003334517                         002000013162475708FRANCIELE CARLA DE LIMA COSTA           01300308790000000000002480000000000                      
0335915300094U 020000000000000000000000000000000000000000000000000000000000000000000000000000000000000000000000000000000000000000000000002402201624022016000000000000000000000000000                              000                           
0335915300095T 02345170130030879        00000001655732004187-05      0503201600000000002950003334517                         002000012180979738GABRIEL ZAYAT SANT'ANNA                 01300308790000000000002480000000000                      
0335915300096U 020000000000000000000000000000000000000000000000000000000000000000000000000000000000000000000000000000000000000000000000002402201624022016000000000000000000000000000                              000                           
0335915300097T 02345170130030879        00000001629732002469-06      1003201600000000003750003334517                         002000012226323732ERIKA FERREIRA D. SILVA                 01300308790000000000002480000000000                      
0335915300098U 020000000000000000000000000000000000000000000000000000000000000000000000000000000000000000000000000000000000000000000000002402201624022016000000000000000000000000000                              000                           
0335915300099T 02345170130030879        00000001644452004136-04      0503201600000000003950003334517                         002000012142564739RENATO BRITO S. SANTOS                  01300308790000000000002480000000000                      
0335915300100U 020000000000000000000000000000000000000000000000000000000000000000000000000000000000000000000000000000000000000000000000002402201624022016000000000000000000000000000                              000                           
0335915300101T 02345170130030879        00000001644532004163-04      0503201600000000003950003334517                         002000012245339762ROSEANE DA SILVA                        01300308790000000000002480000000000                      
0335915300102U 020000000000000000000000000000000000000000000000000000000000000000000000000000000000000000000000000000000000000000000000002402201624022016000000000000000000000000000                              000                           
0335915300103T 02345170130030879        00000001644612004137-04      0503201600000000003950003334517                         002000015276428794TAMARA COUTINHO O. FERREIRA             01300308790000000000002480000000000                      
0335915300104U 020000000000000000000000000000000000000000000000000000000000000000000000000000000000000000000000000000000000000000000000002402201624022016000000000000000000000000000                              000                           
0335915300105T 02345170130030879        00000001644702004166-04      0503201600000000003950003334517                         002000012732953741THIAGO BARBOSA FRAGA                    01300308790000000000002480000000000                      
0335915300106U 020000000000000000000000000000000000000000000000000000000000000000000000000000000000000000000000000000000000000000000000002402201624022016000000000000000000000000000                              000                           
0335915300107T 02345170130030879        00000001644882003968-06      0503201600000000003950003334517                         002000013125216788ALAN NASCIMENTO DE OLIVEIRA             01300308790000000000002480000000000                      
0335915300108U 020000000000000000000000000000000000000000000000000000000000000000000000000000000000000000000000000000000000000000000000002402201624022016000000000000000000000000000                              000                           
0335915300109T 02345170130030879        00000001644962003969-06      0503201600000000003950003334517                         002000005939703739ALEX DO NASCIMENTO NEVES                01300308790000000000002480000000000                      
0335915300110U 020000000000000000000000000000000000000000000000000000000000000000000000000000000000000000000000000000000000000000000000002402201624022016000000000000000000000000000                              000                           
0335915300111T 02345170130030879        00000001645002003970-06      1003201600000000003950003334517                         002000013637788705ALINE ROCHA S. SILVA                    01300308790000000000002480000000000                      
0335915300112U 020000000000000000000000000000000000000000000000000000000000000000000000000000000000000000000000000000000000000000000000002402201624022016000000000000000000000000000                              000                           
0335915300113T 02345170130030879        00000001645182003971-06      0503201600000000003950003334517                         002000012474503765APARECIDA DOS SANTOS MARTINIANO         01300308790000000000002480000000000                      
0335915300114U 020000000000000000000000000000000000000000000000000000000000000000000000000000000000000000000000000000000000000000000000002402201624022016000000000000000000000000000                              000                           
0335915300115T 02345170130030879        00000001645262003415-06      0503201600000000003750003334517                         002000012244703703ARTHUR CARVALHO BORGES                  01300308790000000000002480000000000                      
0335915300116U 020000000000000000000000000000000000000000000000000000000000000000000000000000000000000000000000000000000000000000000000002402201624022016000000000000000000000000000                              000                           
0335915300117T 02345170130030879        00000001645342003972-06      0503201600000000003950003334517                         002000013672321710ARTHUR MADUREIRA DE SOUZA               01300308790000000000002480000000000                      
0335915300118U 020000000000000000000000000000000000000000000000000000000000000000000000000000000000000000000000000000000000000000000000002402201624022016000000000000000000000000000                              000                           
0335915300119T 02345170130030879        00000001645422004025-06      0503201600000000003950003334517                         002000013025068701BRUNA DE JESUS COSTA                    01300308790000000000002480000000000                      
0335915300120U 020000000000000000000000000000000000000000000000000000000000000000000000000000000000000000000000000000000000000000000000002402201624022016000000000000000000000000000                              000                           
0335915300121T 02345170130030879        00000001645502003591-06      1003201600000000003750003334517                         002000006045965701BRUNO DE ANDRADE VIEIRA                 01300308790000000000002480000000000                      
0335915300122U 020000000000000000000000000000000000000000000000000000000000000000000000000000000000000000000000000000000000000000000000002402201624022016000000000000000000000000000                              000                           
0335915300123T 02345170130030879        00000001645692003710-06      0503201600000000003750003334517                         002000014331651711CAMILA PIRES DE OLIVEIRA                01300308790000000000002480000000000                      
0335915300124U 020000000000000000000000000000000000000000000000000000000000000000000000000000000000000000000000000000000000000000000000002402201624022016000000000000000000000000000                              000                           
0335915300125T 02345170130030879        00000001645772003653-06      0503201600000000003750003334517                         002000011816327735DANIELE ANASTACIA S. OLIVEIRA           01300308790000000000002480000000000                      
0335915300126U 020000000000000000000000000000000000000000000000000000000000000000000000000000000000000000000000000000000000000000000000002402201624022016000000000000000000000000000                              000                           
0335915300127T 02345170130030879        00000001645852001109-06      0503201600000000003950003334517                         002000012275309780EDUARDO AZEVEDO ALVES                   01300308790000000000002480000000000                      
0335915300128U 020000000000000000000000000000000000000000000000000000000000000000000000000000000000000000000000000000000000000000000000002402201624022016000000000000000000000000000                              000                           
0335915300129T 02345170130030879        00000001645932004026-06      1003201600000000003950003334517                         002000015190344746EVELYN DOS SANTOS LEMOS                 01300308790000000000002480000000000                      
0335915300130U 020000000000000000000000000000000000000000000000000000000000000000000000000000000000000000000000000000000000000000000000002402201624022016000000000000000000000000000                              000                           
0335915300131T 02345170130030879        00000001646072003974-06      0503201600000000003950003334517                         002000012817385730GABRIELA CARVALHO FERREIRA              01300308790000000000002480000000000                      
0335915300132U 020000000000000000000000000000000000000000000000000000000000000000000000000000000000000000000000000000000000000000000000002402201624022016000000000000000000000000000                              000                           
0335915300133T 02345170130030879        00000001646152003716-06      1003201600000000003750003334517                         002000007397940609GUSTAVO GUIMARAES P. MUSSI              01300308790000000000002480000000000                      
0335915300134U 020000000000000000000000000000000000000000000000000000000000000000000000000000000000000000000000000000000000000000000000002402201624022016000000000000000000000000000                              000                           
0335915300135T 02345170130030879        00000001646232003655-06      0503201600000000003750003334517                         002000011523384719JEFFERSON MACHADO CRISANTO              01300308790000000000002480000000000                      
0335915300136U 020000000000000000000000000000000000000000000000000000000000000000000000000000000000000000000000000000000000000000000000002402201624022016000000000000000000000000000                              000                           
0335915300137T 02345170130030879        00000001629812003600-06      0503201600000000003750003334517                         002000012986120717FABIANA BANDEIRA MARQUES                01300308790000000000002480000000000                      
0335915300138U 020000000000000000000000000000000000000000000000000000000000000000000000000000000000000000000000000000000000000000000000002402201624022016000000000000000000000000000                              000                           
0335915300139T 02345170130030879        00000001629902003511-06      0503201600000000003750003334517                         002000005861781710FERNANDA RIBEIRO DA SILVA               01300308790000000000002480000000000                      
0335915300140U 020000000000000000000000000000000000000000000000000000000000000000000000000000000000000000000000000000000000000000000000002402201624022016000000000000000000000000000                              000                           
0335915300141T 02345170130030879        00000001630072003619-06      0503201600000000003750003334517                         002000015071193728GABRIEL CAMPOS DA SILVA                 01300308790000000000002480000000000                      
0335915300142U 020000000000000000000000000000000000000000000000000000000000000000000000000000000000000000000000000000000000000000000000002402201624022016000000000000000000000000000                              000                           
0335915300143T 02345170130030879        00000001630152003263-06      0503201600000000003750003334517                         002000013117371702GISELA DE CASTRO E. RIBEIRO             01300308790000000000002480000000000                      
0335915300144U 020000000000000000000000000000000000000000000000000000000000000000000000000000000000000000000000000000000000000000000000002402201624022016000000000000000000000000000                              000                           
0335915300145T 02345170130030879        00000001630232003989-06      0503201600000000003950003334517                         002000012444094727IAM GAMA BRITO                          01300308790000000000002480000000000                      
0335915300146U 020000000000000000000000000000000000000000000000000000000000000000000000000000000000000000000000000000000000000000000000002402201624022016000000000000000000000000000                              000                           
0335915300147T 02345170130030879        00000001646312003657-06      0503201600000000003750003334517                         002000012373552736JESSICA TEIXEIRA T. CASTRO              01300308790000000000002480000000000                      
0335915300148U 020000000000000000000000000000000000000000000000000000000000000000000000000000000000000000000000000000000000000000000000002402201624022016000000000000000000000000000                              000                           
0335915300149T 02345170130030879        00000001646402002895-06      0503201600000000002000003334517                         002000012444653726JOCASTA DA SILVA CIPRIANO               01300308790000000000002480000000000                      
0335915300150U 020000000000000000000000000000000000000000000000000000000000000000000000000000000000000000000000000000000000000000000000002402201624022016000000000000000000000000000                              000                           
0335915300151T 02345170130030879        00000001646582003977-06      0503201600000000003950003334517                         002000014294207744JULIANA ARAUJO DE JESUS                 01300308790000000000002480000000000                      
0335915300152U 020000000000000000000000000000000000000000000000000000000000000000000000000000000000000000000000000000000000000000000000002402201624022016000000000000000000000000000                              000                           
0335915300153T 02345170130030879        00000001646662003499-06      0503201600000000003950003334517                         002000012715194706KAISA OLIVEIRA P. DA SILVA              01300308790000000000002480000000000                      
0335915300154U 020000000000000000000000000000000000000000000000000000000000000000000000000000000000000000000000000000000000000000000000002402201624022016000000000000000000000000000                              000                           
0335915300155T 02345170130030879        00000001646742003487-06      0503201600000000003750003334517                         002000013991692708KAMILA RAYANA M. ANJOS                  01300308790000000000002480000000000                      
0335915300156U 020000000000000000000000000000000000000000000000000000000000000000000000000000000000000000000000000000000000000000000000002402201624022016000000000000000000000000000                              000                           
0335915300157T 02345170130030879        00000001646822004198-06      0503201600000000003950003334517                         002000011384541764LEONARDO DE OLIVEIRA BASTOS             01300308790000000000002480000000000                      
0335915300158U 020000000000000000000000000000000000000000000000000000000000000000000000000000000000000000000000000000000000000000000000002402201624022016000000000000000000000000000                              000                           
0335915300159T 02345170130030879        00000001646902003119-06      0503201600000000003750003334517                         002000005867634736MARCELLUS ALVES                         01300308790000000000002480000000000                      
0335915300160U 020000000000000000000000000000000000000000000000000000000000000000000000000000000000000000000000000000000000000000000000002402201624022016000000000000000000000000000                              000                           
0335915300161T 02345170130030879        00000001647042003978-06      0503201600000000003950003334517                         002000013400307726MARCELO LUIZ M. OLIVEIRA                01300308790000000000002480000000000                      
0335915300162U 020000000000000000000000000000000000000000000000000000000000000000000000000000000000000000000000000000000000000000000000002402201624022016000000000000000000000000000                              000                           
0335915300163T 02345170130030879        00000001647122003723-06      0503201600000000003750003334517                         002000012768811777MARIANA DE CARVALHO L. MIRANDA          01300308790000000000002480000000000                      
0335915300164U 020000000000000000000000000000000000000000000000000000000000000000000000000000000000000000000000000000000000000000000000002402201624022016000000000000000000000000000                              000                           
0335915300165T 02345170130030879        00000001647202003979-06      0503201600000000003950003334517                         002000012361670747MARIANA VOUGHANIA HONORIO               01300308790000000000002480000000000                      
0335915300166U 020000000000000000000000000000000000000000000000000000000000000000000000000000000000000000000000000000000000000000000000002402201624022016000000000000000000000000000                              000                           
0335915300167T 02345170130030879        00000001647392003955-06      0503201600000000003950003334517                         002000013407572735OTAVIO LUIZ A. FONSECA                  01300308790000000000002480000000000                      
0335915300168U 020000000000000000000000000000000000000000000000000000000000000000000000000000000000000000000000000000000000000000000000002402201624022016000000000000000000000000000                              000                           
0335915300169T 02345170130030879        00000001647472003364-06      0503201600000000003750003334517                         002000012881053718PATRICIA PEREIRA R. TORRES              01300308790000000000002480000000000                      
0335915300170U 020000000000000000000000000000000000000000000000000000000000000000000000000000000000000000000000000000000000000000000000002402201624022016000000000000000000000000000                              000                           
0335915300171T 02345170130030879        00000001647552003981-06      0503201600000000003950003334517                         002000012402836792PAUL GALINDO MANDACARY                  01300308790000000000002480000000000                      
0335915300172U 020000000000000000000000000000000000000000000000000000000000000000000000000000000000000000000000000000000000000000000000002402201624022016000000000000000000000000000                              000                           
0335915300173T 02345170130030879        00000001647632003982-06      0503201600000000003950003334517                         002000012173000748PHELIPE ALVES BELMONT                   01300308790000000000002480000000000                      
0335915300174U 020000000000000000000000000000000000000000000000000000000000000000000000000000000000000000000000000000000000000000000000002402201624022016000000000000000000000000000                              000                           
0335915300175T 02345170130030879        00000001647712002905-06      1003201600000000003750003334517                         002000013691072771PRINCIA PIMENTA BRAGA                   01300308790000000000002480000000000                      
0335915300176U 020000000000000000000000000000000000000000000000000000000000000000000000000000000000000000000000000000000000000000000000002402201624022016000000000000000000000000000                              000                           
0335915300177T 02345170130030879        00000001647802003838-06      0503201600000000003750003334517                         002000003501157533RAFAEL GONZAGA DA SILVA                 01300308790000000000002480000000000                      
0335915300178U 020000000000000000000000000000000000000000000000000000000000000000000000000000000000000000000000000000000000000000000000002402201624022016000000000000000000000000000                              000                           
0335915300179T 03345170130030879        00000001647042003978-06      0503201600000000003950003334517                         002000013400307726MARCELO LUIZ M. OLIVEIRA                01300308790000000000000004700000000                      
0335915300180U 030000000000000000000000000000000000000000000000000000000000000000000000000000000000000000000000000000000000000000000000002402201624022016000000000000000000000000000                              000                           
0335915300181T 02345170130030879        00000001647982003662-06      0503201600000000002800003334517                         002000010470457619RAFAELA PIRES ROCHA                     01300308790000000000002480000000000                      
0335915300182U 020000000000000000000000000000000000000000000000000000000000000000000000000000000000000000000000000000000000000000000000002402201624022016000000000000000000000000000                              000                           
0335915300183T 02345170130030879        00000001648012003984-06      1003201600000000003950003334517                         002000013823258788RAQUEL MENDES FERREIRA                  01300308790000000000002480000000000                      
0335915300184U 020000000000000000000000000000000000000000000000000000000000000000000000000000000000000000000000000000000000000000000000002402201624022016000000000000000000000000000                              000                           
0335915300185T 02345170130030879        00000001630312003264-06      0503201600000000003750003334517                         002000012024744702ICARO DE PAIVA M. FERREIRA              01300308790000000000002480000000000                      
0335915300186U 020000000000000000000000000000000000000000000000000000000000000000000000000000000000000000000000000000000000000000000000002402201624022016000000000000000000000000000                              000                           
0335915300187T 02345170130030879        00000001630402003990-06      0503201600000000003950003334517                         002000010275643727JEANE SILVA DA CUNHA                    01300308790000000000002480000000000                      
0335915300188U 020000000000000000000000000000000000000000000000000000000000000000000000000000000000000000000000000000000000000000000000002402201624022016000000000000000000000000000                              000                           
0335915300189T 02345170130030879        00000001630582004039-06      0503201600000000003950003334517                         002000015326688727JESSICA FREIRE CARDOSO                  01300308790000000000002480000000000                      
0335915300190U 020000000000000000000000000000000000000000000000000000000000000000000000000000000000000000000000000000000000000000000000002402201624022016000000000000000000000000000                              000                           
0335915300191T 02345170130030879        00000001630662003991-06      0503201600000000003950003334517                         002000014322162797JESSICA RABELO BATISTA                  01300308790000000000002480000000000                      
0335915300192U 020000000000000000000000000000000000000000000000000000000000000000000000000000000000000000000000000000000000000000000000002402201624022016000000000000000000000000000                              000                           
0335915300193T 02345170130030879        00000001630742003992-06      0503201600000000003950003334517                         002000002384695142JULIANA VERLI MENDES                    01300308790000000000002480000000000                      
0335915300194U 020000000000000000000000000000000000000000000000000000000000000000000000000000000000000000000000000000000000000000000000002402201624022016000000000000000000000000000                              000                           
0335915300195T 02345170130030879        00000001630822000028-06      0503201600000000003950003334517                         002000005815658782LORENA SANTANA CASTRO                   01300308790000000000002480000000000                      
0335915300196U 020000000000000000000000000000000000000000000000000000000000000000000000000000000000000000000000000000000000000000000000002402201624022016000000000000000000000000000                              000                           
0335915300197T 02345170130030879        00000001630902003993-06      0503201600000000002870003334517                         002000014205307713LUCAS DE MACEDO SILVA                   01300308790000000000002480000000000                      
0335915300198U 020000000000000000000000000000000000000000000000000000000000000000000000000000000000000000000000000000000000000000000000002402201624022016000000000000000000000000000                              000                           
0335915300199T 02345170130030879        00000001631042003994-06      1003201600000000003950003334517                         002000014010800739LUIS FERNANDO G. GONCALVES JR.          01300308790000000000002480000000000                      
0335915300200U 020000000000000000000000000000000000000000000000000000000000000000000000000000000000000000000000000000000000000000000000002402201624022016000000000000000000000000000                              000                           
0335915300201T 02345170130030879        00000001631122003839-06      0503201600000000003750003334517                         002000011719925720MARCO AURELIO V. B. TAYT-SON            01300308790000000000002480000000000                      
0335915300202U 020000000000000000000000000000000000000000000000000000000000000000000000000000000000000000000000000000000000000000000000002402201624022016000000000000000000000000000                              000                           
0335915300203T 02345170130030879        00000001631202003627-06      0503201600000000003750003334517                         002000005887106794MARIA ISABEL Z. CERQUEIRA               01300308790000000000002480000000000                      
0335915300204U 020000000000000000000000000000000000000000000000000000000000000000000000000000000000000000000000000000000000000000000000002402201624022016000000000000000000000000000                              000                           
0335915300205T 02345170130030879        00000001631392003995-06      0503201600000000003950003334517                         002000014090383781MONIQUE MUNIZ PEREIRA                   01300308790000000000002480000000000                      
0335915300206U 020000000000000000000000000000000000000000000000000000000000000000000000000000000000000000000000000000000000000000000000002402201624022016000000000000000000000000000                              000                           
0335915300207T 02345170130030879        00000001631472003739-06      0503201600000000003750003334517                         002000007561627424NAIRA QUEIROS LEITAO                    01300308790000000000002480000000000                      
0335915300208U 020000000000000000000000000000000000000000000000000000000000000000000000000000000000000000000000000000000000000000000000002402201624022016000000000000000000000000000                              000                           
0335915300209T 02345170130030879        00000001631552003355-06      0503201600000000003750003334517                         002000012508103705NATHALIA DIOGO F. MELO                  01300308790000000000002480000000000                      
0335915300210U 020000000000000000000000000000000000000000000000000000000000000000000000000000000000000000000000000000000000000000000000002402201624022016000000000000000000000000000                              000                           
0335915300211T 02345170130030879        00000001648102003671-06      0503201600000000003750003334517                         002000014226125703TATIANE BARBOSA DA SILVA                01300308790000000000002480000000000                      
0335915300212U 020000000000000000000000000000000000000000000000000000000000000000000000000000000000000000000000000000000000000000000000002402201624022016000000000000000000000000000                              000                           
0335915300213T 02345170130030879        00000001648282003986-06      0503201600000000003950003334517                         002000003182973533WISNER TEIXEIRA DOS SANTOS              01300308790000000000002480000000000                      
0335915300214U 020000000000000000000000000000000000000000000000000000000000000000000000000000000000000000000000000000000000000000000000002402201624022016000000000000000000000000000                              000                           
0335915300215T 02345170130030879        00000001648792003939-06      0503201600000000003950003334517                         002000014296363786BRUNA VIEIRA CHAVES                     01300308790000000000002480000000000                      
0335915300216U 020000000000000000000000000000000000000000000000000000000000000000000000000000000000000000000000000000000000000000000000002402201624022016000000000000000000000000000                              000                           
0335915300217T 02345170130030879        00000001649502003265-06      0503201600000000003500003334517                         002000012317988745JANAINA CALIAN PINHEIRO                 01300308790000000000002480000000000                      
0335915300218U 020000000000000000000000000000000000000000000000000000000000000000000000000000000000000000000000000000000000000000000000002402201624022016000000000000000000000000000                              000                           
0335915300219T 02345170130030879        00000001649682003946-06      0503201600000000003950003334517                         002000013887988752JAQUELINE MUNIZ MORENO                  01300308790000000000002480000000000                      
0335915300220U 020000000000000000000000000000000000000000000000000000000000000000000000000000000000000000000000000000000000000000000000002402201624022016000000000000000000000000000                              000                           
0335915300221T 02345170130030879        00000001655812004111-05      0503201600000000003950003334517                         002000010978735790GILENO OLIVEIRA PINTO                   01300308790000000000002480000000000                      
0335915300222U 020000000000000000000000000000000000000000000000000000000000000000000000000000000000000000000000000000000000000000000000002402201624022016000000000000000000000000000                              000                           
0335915300223T 02345170130030879        00000001655902004092-05      0503201600000000003970003334517                         002000009888554700ISRAEL CASSIANO S. DUARTE               01300308790000000000002480000000000                      
0335915300224U 020000000000000000000000000000000000000000000000000000000000000000000000000000000000000000000000000000000000000000000000002402201624022016000000000000000000000000000                              000                           
0335915300225T 02345170130030879        00000001656032003904-05      0503201600000000003750003334517                         002000005831456714JEREMIAS JOSE R. ROCHA                  01300308790000000000002480000000000                      
0335915300226U 020000000000000000000000000000000000000000000000000000000000000000000000000000000000000000000000000000000000000000000000002402201624022016000000000000000000000000000                              000                           
0335915300227T 02345170130030879        00000001656112004094-05      0503201600000000003950003334517                         002000006410834403KAREN VELASQUEZ DA PAZ                  01300308790000000000002480000000000                      
0335915300228U 020000000000000000000000000000000000000000000000000000000000000000000000000000000000000000000000000000000000000000000000002402201624022016000000000000000000000000000                              000                           
0335915300229T 02345170130030879        00000001631632002966-06      0503201600000000003950003334517                         002000011608177742PATRICIA COELHO BRITO                   01300308790000000000002480000000000                      
0335915300230U 020000000000000000000000000000000000000000000000000000000000000000000000000000000000000000000000000000000000000000000000002402201624022016000000000000000000000000000                              000                           
0335915300231T 02345170130030879        00000001656202003841-05      0503201600000000002000003334517                         002000009960316777KLEBER MENDES FERREIRA                  01300308790000000000002480000000000                      
0335915300232U 020000000000000000000000000000000000000000000000000000000000000000000000000000000000000000000000000000000000000000000000002402201624022016000000000000000000000000000                              000                           
0335915300233T 02345170130030879        00000001631802003733-06      0503201600000000003750003334517                         002000013437201760RAFAELA ARAUJO FERREIRA                 01300308790000000000002480000000000                      
0335915300234U 020000000000000000000000000000000000000000000000000000000000000000000000000000000000000000000000000000000000000000000000002402201624022016000000000000000000000000000                              000                           
0335915300235T 02345170130030879        00000001656382004095-05      0503201600000000003950003334517                         002000009535652702MARCELO VINICIUS L. TORRES              01300308790000000000002480000000000                      
0335915300236U 020000000000000000000000000000000000000000000000000000000000000000000000000000000000000000000000000000000000000000000000002402201624022016000000000000000000000000000                              000                           
0335915300237T 02345170130030879        00000001656462000017-05      0503201600000000003950003334517                         002000013690395739MARKUS RUBEM P. OLIVEIRA                01300308790000000000002480000000000                      
0335915300238U 020000000000000000000000000000000000000000000000000000000000000000000000000000000000000000000000000000000000000000000000002402201624022016000000000000000000000000000                              000                           
0335915300239T 02345170130030879        00000001656542004096-05      0503201600000000003950003334517                         002000001906037124MARLON SILVA CAMPOS                     01300308790000000000002480000000000                      
0335915300240U 020000000000000000000000000000000000000000000000000000000000000000000000000000000000000000000000000000000000000000000000002402201624022016000000000000000000000000000                              000                           
0335915300241T 02345170130030879        00000001631982003802-06      0503201600000000003750003334517                         002000013427068706RAISSA FERNANDES BRAGA                  01300308790000000000002480000000000                      
0335915300242U 020000000000000000000000000000000000000000000000000000000000000000000000000000000000000000000000000000000000000000000000002402201624022016000000000000000000000000000                              000                           
0335915300243T 02345170130030879        00000001632012003741-06      0503201600000000003750003334517                         002000014241871763RANNON FERNANDO M. DOS SANTOS           01300308790000000000002480000000000                      
0335915300244U 020000000000000000000000000000000000000000000000000000000000000000000000000000000000000000000000000000000000000000000000002402201624022016000000000000000000000000000                              000                           
0335915300245T 02345170130030879        00000001632102003704-06      0503201600000000003750003334517                         002000011796956740THAIANE SALES DE OLIVEIRA               01300308790000000000002480000000000                      
0335915300246U 020000000000000000000000000000000000000000000000000000000000000000000000000000000000000000000000000000000000000000000000002402201624022016000000000000000000000000000                              000                           
0335915300247T 02345170130030879        00000001656622000440-05      0503201600000000003750003334517                         002000005808276748NATALIA MAGALHAES R. BINOTO             01300308790000000000002480000000000                      
0335915300248U 020000000000000000000000000000000000000000000000000000000000000000000000000000000000000000000000000000000000000000000000002402201624022016000000000000000000000000000                              000                           
0335915300249T 02345170130030879        00000001656702004109-05      0503201600000000003950003334517                         002000009039518785RAFAEL TOLEDO FURTADO                   01300308790000000000002480000000000                      
0335915300250U 020000000000000000000000000000000000000000000000000000000000000000000000000000000000000000000000000000000000000000000000002402201624022016000000000000000000000000000                              000                           
0335915300251T 02345170130030879        00000001632282003635-06      0503201600000000003750003334517                         002000013097228705THIAGO ALTINO DA SILVA                  01300308790000000000002480000000000                      
0335915300252U 020000000000000000000000000000000000000000000000000000000000000000000000000000000000000000000000000000000000000000000000002402201624022016000000000000000000000000000                              000                           
0335915300253T 02345170130030879        00000001656892004097-05      0503201600000000003950003334517                         002000011110983794RALPH VENANCIO DE OLIVERIA              01300308790000000000002480000000000                      
0335915300254U 020000000000000000000000000000000000000000000000000000000000000000000000000000000000000000000000000000000000000000000000002402201624022016000000000000000000000000000                              000                           
0335915300255T 02345170130030879        00000001656972004098-05      0503201600000000003950003334517                         002000014421034770RAPHAEL RICHARD B. PEREIRA              01300308790000000000002480000000000                      
0335915300256U 020000000000000000000000000000000000000000000000000000000000000000000000000000000000000000000000000000000000000000000000002402201624022016000000000000000000000000000                              000                           
0335915300257T 02345170130030879        00000001657002004099-05      0503201600000000003950003334517                         002000012850975729ROBSON CAETANO DE OLIVEIRA              01300308790000000000002480000000000                      
0335915300258U 020000000000000000000000000000000000000000000000000000000000000000000000000000000000000000000000000000000000000000000000002402201624022016000000000000000000000000000                              000                           
0335915300259T 02345170130030879        00000001657192004100-05      0503201600000000003950003334517                         002000013589370793SARA CAVALCANTI PEREIRA                 01300308790000000000002480000000000                      
0335915300260U 020000000000000000000000000000000000000000000000000000000000000000000000000000000000000000000000000000000000000000000000002402201624022016000000000000000000000000000                              000                           
0335915300261T 02345170130030879        00000001657272001303-05      0503201600000000003950003334517                         002000005563842703TATIANE LACERDA NACARATI                01300308790000000000002480000000000                      
0335915300262U 020000000000000000000000000000000000000000000000000000000000000000000000000000000000000000000000000000000000000000000000002402201624022016000000000000000000000000000                              000                           
0335915300263T 02345170130030879        00000001657352003905-05      0503201600000000003950003334517                         002000011210106795THIAGO PEREIRA DA COSTA                 01300308790000000000002480000000000                      
0335915300264U 020000000000000000000000000000000000000000000000000000000000000000000000000000000000000000000000000000000000000000000000002402201624022016000000000000000000000000000                              000                           
0335915300265T 02345170130030879        00000001657432004102-05      0503201600000000003950003334517                         002000005786250750ULISSES ANTONIO DE OLIVEIRA             01300308790000000000002480000000000                      
0335915300266U 020000000000000000000000000000000000000000000000000000000000000000000000000000000000000000000000000000000000000000000000002402201624022016000000000000000000000000000                              000                           
0335915300267T 02345170130030879        00000001657512004103-05      0503201600000000003950003334517                         002000011143586735VICTOR SILVA DE GOUVEA                  01300308790000000000002480000000000                      
0335915300268U 020000000000000000000000000000000000000000000000000000000000000000000000000000000000000000000000000000000000000000000000002402201624022016000000000000000000000000000                              000                           
0335915300269T 02345170130030879        00000001657602003774-05      0503201600000000003750003334517                         002000005312340707ALEXANDRA DOS SANTOS MENEZES            01300308790000000000002480000000000                      
0335915300270U 020000000000000000000000000000000000000000000000000000000000000000000000000000000000000000000000000000000000000000000000002402201624022016000000000000000000000000000                              000                           
0335915300271T 02345170130030879        00000001657782004110-05      0503201600000000003950003334517                         002000005647737781ANDRE LUIS M. SILVA                     01300308790000000000002480000000000                      
0335915300272U 020000000000000000000000000000000000000000000000000000000000000000000000000000000000000000000000000000000000000000000000002402201624022016000000000000000000000000000                              000                           
0335915300273T 02345170130030879        00000001657862004073-05      0503201600000000003950003334517                         002000000846614375ANDREA OLIVEIRA ALCANTARA               01300308790000000000002480000000000                      
0335915300274U 020000000000000000000000000000000000000000000000000000000000000000000000000000000000000000000000000000000000000000000000002402201624022016000000000000000000000000000                              000                           
0335915300275T 02345170130030879        00000001657942004074-05      0503201600000000003500003334517                         002000012016487771CAMILLA CRUZ MONTEIRO                   01300308790000000000002480000000000                      
0335915300276U 020000000000000000000000000000000000000000000000000000000000000000000000000000000000000000000000000000000000000000000000002402201624022016000000000000000000000000000                              000                           
0335915300277T 02345170130030879        00000001632362003906-06      0503201600000000003500003334517                         002000012539324762TIAGO DE OLIVEIRA TEIXEIRA              01300308790000000000002480000000000                      
0335915300278U 020000000000000000000000000000000000000000000000000000000000000000000000000000000000000000000000000000000000000000000000002402201624022016000000000000000000000000000                              000                           
0335915300279T 02345170130030879        00000001632442004027-06      0503201600000000003950003334517                         002000014030850723TUANIA DA SILVA MENDES                  01300308790000000000002480000000000                      
0335915300280U 020000000000000000000000000000000000000000000000000000000000000000000000000000000000000000000000000000000000000000000000002402201624022016000000000000000000000000000                              000                           
0335915300281T 02345170130030879        00000001632522003996-06      0503201600000000003950003334517                         002000012882491794VINICIUS MARCOS CASTRO                  01300308790000000000002480000000000                      
0335915300282U 020000000000000000000000000000000000000000000000000000000000000000000000000000000000000000000000000000000000000000000000002402201624022016000000000000000000000000000                              000                           
0335915300283T 02345170130030879        00000001658082000240-05      0503201600000000003000003334517                         002000008864424784CARLA MARCELA N. A. REBELLO             01300308790000000000002480000000000                      
0335915300284U 020000000000000000000000000000000000000000000000000000000000000000000000000000000000000000000000000000000000000000000000002402201624022016000000000000000000000000000                              000                           
0335915300285T 02345170130030879        00000001658162004075-05      0503201600000000003950003334517                         002000010627544762CASSIA PINTO C. PROENCA                 01300308790000000000002480000000000                      
0335915300286U 020000000000000000000000000000000000000000000000000000000000000000000000000000000000000000000000000000000000000000000000002402201624022016000000000000000000000000000                              000                           
0335915300287T 02345170130030879        00000001658242004190-05      0503201600000000003950003334517                         002000005851837756DIEGO LOBO S. PINTO                     01300308790000000000002480000000000                      
0335915300288U 020000000000000000000000000000000000000000000000000000000000000000000000000000000000000000000000000000000000000000000000002402201624022016000000000000000000000000000                              000                           
0335915300289T 02345170130030879        00000001658322004076-05      0503201600000000003950003334517                         002000013446986707ELLYS RAMALHO VANDERLEI                 01300308790000000000002480000000000                      
0335915300290U 020000000000000000000000000000000000000000000000000000000000000000000000000000000000000000000000000000000000000000000000002402201624022016000000000000000000000000000                              000                           
0335915300291T 02345170130030879        00000001658402003780-05      0503201600000000003750003334517                         002000012425304797ELUSKA MACHADO NERY                     01300308790000000000002480000000000                      
0335915300292U 020000000000000000000000000000000000000000000000000000000000000000000000000000000000000000000000000000000000000000000000002402201624022016000000000000000000000000000                              000                           
0335915300293T 02345170130030879        00000001658592004077-05      0503201600000000003950003334517                         002000009397915797FABIO CARLOS S. TORRES                  01300308790000000000002480000000000                      
0335915300294U 020000000000000000000000000000000000000000000000000000000000000000000000000000000000000000000000000000000000000000000000002402201624022016000000000000000000000000000                              000                           
0335915300295T 02345170130030879        00000001658672002619-05      0503201600000000003950003334517                         002000010867826746GIRLENE AZEVEDO SILVA                   01300308790000000000002480000000000                      
0335915300296U 020000000000000000000000000000000000000000000000000000000000000000000000000000000000000000000000000000000000000000000000002402201624022016000000000000000000000000000                              000                           
0335915300297T 02345170130030879        00000001658752004079-05      0503201600000000003950003334517                         002000012140382714HERBERT DE OLIVEIRA TAVOLARO            01300308790000000000002480000000000                      
0335915300298U 020000000000000000000000000000000000000000000000000000000000000000000000000000000000000000000000000000000000000000000000002402201624022016000000000000000000000000000                              000                           
0335915300299T 02345170130030879        00000001632602003997-06      0503201600000000003950003334517                         002000013302236751WILLIANS GUIMARAES CAMPOS               01300308790000000000002480000000000                      
0335915300300U 020000000000000000000000000000000000000000000000000000000000000000000000000000000000000000000000000000000000000000000000002402201624022016000000000000000000000000000                              000                           
0335915300301T 02345170130030879        00000001632792003698-06      0503201600000000003750003334517                         002000013231326788ALAN DOS SANTOS VALERIO                 01300308790000000000002480000000000                      
0335915300302U 020000000000000000000000000000000000000000000000000000000000000000000000000000000000000000000000000000000000000000000000002402201624022016000000000000000000000000000                              000                           
0335915300303T 02345170130030879        00000001632872004029-06      0503201600000000003950003334517                         002000014855361704ALESSANDRA GUEDES O. SILVA              01300308790000000000002480000000000                      
0335915300304U 020000000000000000000000000000000000000000000000000000000000000000000000000000000000000000000000000000000000000000000000002402201624022016000000000000000000000000000                              000                           
0335915300305T 02345170130030879        00000001632952004030-06      0503201600000000003950003334517                         002000013850528723ANDRESSA LEAL COSTA                     01300308790000000000002480000000000                      
0335915300306U 020000000000000000000000000000000000000000000000000000000000000000000000000000000000000000000000000000000000000000000000002402201624022016000000000000000000000000000                              000                           
0335915300307T 02345170130030879        00000001633092003872-06      0503201600000000003750003334517                         002000013545607798ARICIA NATALIA T. QUEIROZ               01300308790000000000002480000000000                      
0335915300308U 020000000000000000000000000000000000000000000000000000000000000000000000000000000000000000000000000000000000000000000000002402201624022016000000000000000000000000000                              000                           
0335915300309T 02345170130030879        00000001633172004031-06      0503201600000000003950003334517                         002000010959370730ARTHUR SOUZA DA SILVA                   01300308790000000000002480000000000                      
0335915300310U 020000000000000000000000000000000000000000000000000000000000000000000000000000000000000000000000000000000000000000000000002402201624022016000000000000000000000000000                              000                           
0335915300311T 02345170130030879        00000001633252003596-06      1003201600000000003750003334517                         002000011747999784BARBARA MATTOS F. DURAN                 01300308790000000000002480000000000                      
0335915300312U 020000000000000000000000000000000000000000000000000000000000000000000000000000000000000000000000000000000000000000000000002402201624022016000000000000000000000000000                              000                           
0335915300313T 02345170130030879        00000001633332003478-06      0503201600000000003750003334517                         002000012334811777CAROLINA SILVA RIGHI                    01300308790000000000002480000000000                      
0335915300314U 020000000000000000000000000000000000000000000000000000000000000000000000000000000000000000000000000000000000000000000000002402201624022016000000000000000000000000000                              000                           
0335915300315T 02345170130030879        00000001633412003876-06      0503201600000000003750003334517                         002000012329137745CINTIA CRISTINA P. ROSA                 01300308790000000000002480000000000                      
0335915300316U 020000000000000000000000000000000000000000000000000000000000000000000000000000000000000000000000000000000000000000000000002402201624022016000000000000000000000000000                              000                           
0335915300317T 02345170130030879        00000001633502004034-06      0503201600000000003950003334517                         002000005881602706DARLEN DE OLIVEIRA PANCOTE              01300308790000000000002480000000000                      
0335915300318U 020000000000000000000000000000000000000000000000000000000000000000000000000000000000000000000000000000000000000000000000002402201624022016000000000000000000000000000                              000                           
0335915300319T 02345170130030879        00000001633682004035-06      0503201600000000003950003334517                         002000011138628743EDUARDO CORREA CARNEIRO                 01300308790000000000002480000000000                      
0335915300320U 020000000000000000000000000000000000000000000000000000000000000000000000000000000000000000000000000000000000000000000000002402201624022016000000000000000000000000000                              000                           
0335915300321T 02345170130030879        00000001658832004080-05      1003201600000000002370003334517                         002000013415807762HUGO SOUZA D. AGUIAR                    01300308790000000000002480000000000                      
0335915300322U 020000000000000000000000000000000000000000000000000000000000000000000000000000000000000000000000000000000000000000000000002402201624022016000000000000000000000000000                              000                           
0335915300323T 02345170130030879        00000001658912003845-05      0503201600000000003950003334517                         002000010363196790IRAPUA LUCIANO DE A. MOURA              01300308790000000000002480000000000                      
0335915300324U 020000000000000000000000000000000000000000000000000000000000000000000000000000000000000000000000000000000000000000000000002402201624022016000000000000000000000000000                              000                           
0335915300325T 02345170130030879        00000001659052004081-05      0503201600000000003950003334517                         002000009944188760ISAQUE JOSE F. SANTOS                   01300308790000000000002480000000000                      
0335915300326U 020000000000000000000000000000000000000000000000000000000000000000000000000000000000000000000000000000000000000000000000002402201624022016000000000000000000000000000                              000                           
0335915300327T 02345170130030879        00000001659132004170-05      0503201600000000003950003334517                         002000012850808741JACQUELINE NASCIMENTO DA SILVA          01300308790000000000002480000000000                      
0335915300328U 020000000000000000000000000000000000000000000000000000000000000000000000000000000000000000000000000000000000000000000000002402201624022016000000000000000000000000000                              000                           
0335915300329T 02345170130030879        00000001659212004107-05      0503201600000000003950003334517                         002000009945056719JEFERSON KRAUSS S. PAIVA                01300308790000000000002480000000000                      
0335915300330U 020000000000000000000000000000000000000000000000000000000000000000000000000000000000000000000000000000000000000000000000002402201624022016000000000000000000000000000                              000                           
0335915300331T 02345170130030879        00000001659302004082-05      0503201600000000003950003334517                         002000013010711700JONATHAN ALVES C. SILVA                 01300308790000000000002480000000000                      
0335915300332U 020000000000000000000000000000000000000000000000000000000000000000000000000000000000000000000000000000000000000000000000002402201624022016000000000000000000000000000                              000                           
0335915300333T 02345170130030879        00000001659482004083-05      0503201600000000003950003334517                         002000010315252707LEONARDO GAMA RODRIGUES                 01300308790000000000002480000000000                      
0335915300334U 020000000000000000000000000000000000000000000000000000000000000000000000000000000000000000000000000000000000000000000000002402201624022016000000000000000000000000000                              000                           
0335915300335T 02345170130030879        00000001633762004036-06      0503201600000000003950003334517                         002000011968763716EDUARDO DE PINHO LOPES                  01300308790000000000002480000000000                      
0335915300336U 020000000000000000000000000000000000000000000000000000000000000000000000000000000000000000000000000000000000000000000000002402201624022016000000000000000000000000000                              000                           
0335915300337T 02345170130030879        00000001633842004065-06      0503201600000000003950003334517                         002000012048015760GUSTAVO LUIZ DO NASCIMENTO VIANA        01300308790000000000002480000000000                      
0335915300338U 020000000000000000000000000000000000000000000000000000000000000000000000000000000000000000000000000000000000000000000000002402201624022016000000000000000000000000000                              000                           
0335915300339T 02345170130030879        00000001633922004064-06      0503201600000000003950003334517                         002000012834633770ISIS CEZARIO GOMES                      01300308790000000000002480000000000                      
0335915300340U 020000000000000000000000000000000000000000000000000000000000000000000000000000000000000000000000000000000000000000000000002402201624022016000000000000000000000000000                              000                           
0335915300341T 02345170130030879        00000001634062003452-06      0503201600000000003500003334517                         002000013613670755JAQUELINE PEREIRA SOARES                01300308790000000000002480000000000                      
0335915300342U 020000000000000000000000000000000000000000000000000000000000000000000000000000000000000000000000000000000000000000000000002402201624022016000000000000000000000000000                              000                           
0335915300343T 02345170130030879        00000001659562003825-05      0503201600000000003500003334517                         002000013605641792LUCAS DE AZEVEDO SILVA BRUM             01300308790000000000002480000000000                      
0335915300344U 020000000000000000000000000000000000000000000000000000000000000000000000000000000000000000000000000000000000000000000000002402201624022016000000000000000000000000000                              000                           
0335915300345T 02345170130030879        00000001659642003840-05      0503201600000000003750003334517                         002000012907568728LUIZ FILIPE N. DIAS                     01300308790000000000002480000000000                      
0335915300346U 020000000000000000000000000000000000000000000000000000000000000000000000000000000000000000000000000000000000000000000000002402201624022016000000000000000000000000000                              000                           
0335915300347T 02345170130030879        00000001659722004184-05      0503201600000000003950003334517                         002000012372719750NATHALIA PINTO DE OLIVEIRA              01300308790000000000002480000000000                      
0335915300348U 020000000000000000000000000000000000000000000000000000000000000000000000000000000000000000000000000000000000000000000000002402201624022016000000000000000000000000000                              000                           
0335915300349T 02345170130030879        00000001659802004084-05      0503201600000000003950003334517                         002000010496830724PEDRO OLIVEIRA S. ROSADO                01300308790000000000002480000000000                      
0335915300350U 020000000000000000000000000000000000000000000000000000000000000000000000000000000000000000000000000000000000000000000000002402201624022016000000000000000000000000000                              000                           
0335915300351T 02345170130030879        00000001659992000708-05      0503201600000000003950003334517                         002000005500165704RAFAEL GUIMARAES CABRAL                 01300308790000000000002480000000000                      
0335915300352U 020000000000000000000000000000000000000000000000000000000000000000000000000000000000000000000000000000000000000000000000002402201624022016000000000000000000000000000                              000                           
0335915300353T 02345170130030879        00000001634142004038-06      0503201600000000003950003334517                         002000014118928795JESSICA CRISTINA S. SANTOS              01300308790000000000002480000000000                      
0335915300354U 020000000000000000000000000000000000000000000000000000000000000000000000000000000000000000000000000000000000000000000000002402201624022016000000000000000000000000000                              000                           
0335915300355T 02345170130030879        00000001660062004186-05      0503201600000000003600003334517                         002000008989164702RAFAEL SILVA FERNANDES                  01300308790000000000002480000000000                      
0335915300356U 020000000000000000000000000000000000000000000000000000000000000000000000000000000000000000000000000000000000000000000000002402201624022016000000000000000000000000000                              000                           
0335915300357T 02345170130030879        00000001634222003351-06      0503201600000000003750003334517                         002000014506692713JESSICA DE ARAUJO GOMES                 01300308790000000000002480000000000                      
0335915300358U 020000000000000000000000000000000000000000000000000000000000000000000000000000000000000000000000000000000000000000000000002402201624022016000000000000000000000000000                              000                           
0335915300359T 02345170130030879        00000001634302003681-06      0503201600000000003750003334517                         002000013158052784JULIANA NAJARA DOS SANTOS               01300308790000000000002480000000000                      
0335915300360U 020000000000000000000000000000000000000000000000000000000000000000000000000000000000000000000000000000000000000000000000002402201624022016000000000000000000000000000                              000                           
0335915300361T 02345170130030879        00000001634492004042-06      2103201600000000003950003334517                         002000011385811781LIANE FATIMA C. LISBOA                  01300308790000000000002480000000000                      
0335915300362U 020000000000000000000000000000000000000000000000000000000000000000000000000000000000000000000000000000000000000000000000002402201624022016000000000000000000000000000                              000                           
0335915300363T 02345170130030879        00000001634572003518-06      0503201600000000003750003334517                         002000012417105705LUANA SANTOS DA SILVA                   01300308790000000000002480000000000                      
0335915300364U 020000000000000000000000000000000000000000000000000000000000000000000000000000000000000000000000000000000000000000000000002402201624022016000000000000000000000000000                              000                           
0335915300365T 02345170130030879        00000001634652004045-06      1003201600000000003950003334517                         002000012547852721MICHELE MACEDO COSTA                    01300308790000000000002480000000000                      
0335915300366U 020000000000000000000000000000000000000000000000000000000000000000000000000000000000000000000000000000000000000000000000002402201624022016000000000000000000000000000                              000                           
0335915300367T 02345170130030879        00000001634732001781-06      1003201600000000003750003334517                         002000012695397798PAMELA DUARTE F. S. TEIXEIRA            01300308790000000000002480000000000                      
0335915300368U 020000000000000000000000000000000000000000000000000000000000000000000000000000000000000000000000000000000000000000000000002402201624022016000000000000000000000000000                              000                           
0335915300369T 02345170130030879        00000001634812004047-06      0503201600000000003950003334517                         002000012942410795PAOLA LIMA SOUSA SATLHER                01300308790000000000002480000000000                      
0335915300370U 020000000000000000000000000000000000000000000000000000000000000000000000000000000000000000000000000000000000000000000000002402201624022016000000000000000000000000000                              000                           
0335915300371T 02345170130030879        00000001634902004048-06      0503201600000000003950003334517                         002000011912254700PRISCILA MENDONCA DE SOUZA              01300308790000000000002480000000000                      
0335915300372U 020000000000000000000000000000000000000000000000000000000000000000000000000000000000000000000000000000000000000000000000002402201624022016000000000000000000000000000                              000                           
0335915300373T 02345170130030879        00000001635032003304-06      0503201600000000003750003334517                         002000012757919725RAFAELA DIAS P. A. LUCENA               01300308790000000000002480000000000                      
0335915300374U 020000000000000000000000000000000000000000000000000000000000000000000000000000000000000000000000000000000000000000000000002402201624022016000000000000000000000000000                              000                           
0335915300375T 02345170130030879        00000001635112003693-06      0503201600000000003750003334517                         002000013766386735RAYANNE ALVARES SIMAS                   01300308790000000000002480000000000                      
0335915300376U 020000000000000000000000000000000000000000000000000000000000000000000000000000000000000000000000000000000000000000000000002402201624022016000000000000000000000000000                              000                           
0335915300377T 02345170130030879        00000001635202004050-06      0503201600000000003950003334517                         002000013747499740RENATA ARAGAO DO NASCIMENTO             01300308790000000000002480000000000                      
0335915300378U 020000000000000000000000000000000000000000000000000000000000000000000000000000000000000000000000000000000000000000000000002402201624022016000000000000000000000000000                              000                           
0335915300379T 02345170130030879        00000001660142003791-05      0503201600000000003750003334517                         002000009214549702RENATA CARDOSO C. SILVA                 01300308790000000000002480000000000                      
0335915300380U 020000000000000000000000000000000000000000000000000000000000000000000000000000000000000000000000000000000000000000000000002402201624022016000000000000000000000000000                              000                           
0335915300381T 02345170130030879        00000001635382003695-06      0503201600000000003750003334517                         002000013418145728THAIS LEMOS BREUIL                      01300308790000000000002480000000000                      
0335915300382U 020000000000000000000000000000000000000000000000000000000000000000000000000000000000000000000000000000000000000000000000002402201624022016000000000000000000000000000                              000                           
0335915300383T 02345170130030879        00000001635462004063-06      0503201600000000003950003334517                         002000012794575708THAYSA RAINHO FARIA GUIMARAES           01300308790000000000002480000000000                      
0335915300384U 020000000000000000000000000000000000000000000000000000000000000000000000000000000000000000000000000000000000000000000000002402201624022016000000000000000000000000000                              000                           
0335915300385T 02345170130030879        00000001635542003963-06      0503201600000000003950003334517                         002000012710558726THIAGO DE SOUZA F. SANTIAGO             01300308790000000000002480000000000                      
0335915300386U 020000000000000000000000000000000000000000000000000000000000000000000000000000000000000000000000000000000000000000000000002402201624022016000000000000000000000000000                              000                           
0335915300387T 02345170130030879        00000001635622003999-06      0503201600000000003950003334517                         002000013684896721ALINE VIEIRA DE MORAES                  01300308790000000000002480000000000                      
0335915300388U 020000000000000000000000000000000000000000000000000000000000000000000000000000000000000000000000000000000000000000000000002402201624022016000000000000000000000000000                              000                           
0335915300389T 02345170130030879        00000001635702004052-05      0503201600000000003950003334517                         002000012617999769ANA CAROLINA C. PASSOS                  01300308790000000000002480000000000                      
0335915300390U 020000000000000000000000000000000000000000000000000000000000000000000000000000000000000000000000000000000000000000000000002402201624022016000000000000000000000000000                              000                           
0335915300391T 02345170130030879        00000001635892004197-06      0503201600000000003950003334517                         002000013078132757ANA CAROLINA SOARES DA SILVA            01300308790000000000002480000000000                      
0335915300392U 020000000000000000000000000000000000000000000000000000000000000000000000000000000000000000000000000000000000000000000000002402201624022016000000000000000000000000000                              000                           
0335915300393T 02345170130030879        00000001660222004101-05      0503201600000000003950003334517                         002000011304253716SUELEN ALVES M. COUTO                   01300308790000000000002480000000000                      
0335915300394U 020000000000000000000000000000000000000000000000000000000000000000000000000000000000000000000000000000000000000000000000002402201624022016000000000000000000000000000                              000                           
0335915300395T 02345170130030879        00000001640112004120-04      0503201600000000003950003334517                         002000012643871723KAMILLA CANDIDA C. SILVA                01300308790000000000002480000000000                      
0335915300396U 020000000000000000000000000000000000000000000000000000000000000000000000000000000000000000000000000000000000000000000000002402201624022016000000000000000000000000000                              000                           
0335915300397T 02345170130030879        00000001640202004167-04      0503201600000000003950003334517                         002000011990107745LUCIANA BATISTA DA S. JORGE             01300308790000000000002480000000000                      
0335915300398U 020000000000000000000000000000000000000000000000000000000000000000000000000000000000000000000000000000000000000000000000002402201624022016000000000000000000000000000                              000                           
0335915300399T 02345170130030879        00000001640382003106-04      0503201600000000003750003334517                         002000012019492709LUIZ CLAUDIO M. CRUZ                    01300308790000000000002480000000000                      
0335915300400U 020000000000000000000000000000000000000000000000000000000000000000000000000000000000000000000000000000000000000000000000002402201624022016000000000000000000000000000                              000                           
0335915300401T 02345170130030879        00000001640462002504-04      0503201600000000003750003334517                         002000012066479730MAGNO ANTONIO S. OLIVEIRA               01300308790000000000002480000000000                      
0335915300402U 020000000000000000000000000000000000000000000000000000000000000000000000000000000000000000000000000000000000000000000000002402201624022016000000000000000000000000000                              000                           
0335915300403T 02345170130030879        00000001640542004121-04      0503201600000000003950003334517                         002000014185388764MIKAELLE SOUZA BRITO                    01300308790000000000002480000000000                      
0335915300404U 020000000000000000000000000000000000000000000000000000000000000000000000000000000000000000000000000000000000000000000000002402201624022016000000000000000000000000000                              000                           
0335915300405T 02345170130030879        00000001660302004085-05      0503201600000000003950003334517                         002000014775316702VICTOR BARROZO RAUL                     01300308790000000000002480000000000                      
0335915300406U 020000000000000000000000000000000000000000000000000000000000000000000000000000000000000000000000000000000000000000000000002402201624022016000000000000000000000000000                              000                           
0335915300407T 02345170130030879        00000001660492004086-05      0503201600000000003950003334517                         002000011612977740VICTOR FIGUEIREDO VILAR                 01300308790000000000002480000000000                      
0335915300408U 020000000000000000000000000000000000000000000000000000000000000000000000000000000000000000000000000000000000000000000000002402201624022016000000000000000000000000000                              000                           
0335915300409T 02345170130030879        00000001660572004106-05      0503201600000000003950003334517                         002000005640651709VINICIUS HOZARA D. NUNES                01300308790000000000002480000000000                      
0335915300410U 020000000000000000000000000000000000000000000000000000000000000000000000000000000000000000000000000000000000000000000000002402201624022016000000000000000000000000000                              000                           
0335915300411T 02345170130030879        00000001660652004087-05      0503201600000000003950003334517                         002000012472337744YURI NOBREGA T. ARRAIS                  01300308790000000000002480000000000                      
