03300000        2010851328000175345170130030879     007570007           CURSO ADONAI LTDA             BANCO SANTANDER (BRASIL) S/A            223022016      000002040                                                                          
03365791T01  040 2010851328000175007570007           345170130030879     CURSO ADONAI LTDA                                                                                             0000000223022016                                         
0336579300001T 02345170130030879        00000001648362003935-06      0503201600000000003950003334517                         002000012377435750ANA LUISA B. ISSA                       01300308790000000000002480000000000                      
0336579300002U 020000000000000000000000000000000000000000000000000000000000000000000000000000000000000000000000000000000000000000000000002302201623022016000000000000000000000000000                              000                           
0336579300003T 02345170130030879        00000001648442003936-06      0503201600000000003950003334517                         002000012363108701ANNA BEATRIZ A. M. RUAS                 01300308790000000000002480000000000                      
0336579300004U 020000000000000000000000000000000000000000000000000000000000000000000000000000000000000000000000000000000000000000000000002302201623022016000000000000000000000000000                              000                           
0336579300005T 02345170130030879        00000001648522003937-06      0503201600000000003950003334517                         002000013249387738ARTHUR EINSTEIN S. ANTUNES              01300308790000000000002480000000000                      
0336579300006U 020000000000000000000000000000000000000000000000000000000000000000000000000000000000000000000000000000000000000000000000002302201623022016000000000000000000000000000                              000                           
0336579300007T 02345170130030879        00000001648602003938-06      0503201600000000003950003334517                         002000014171801702AURI DOURADO CHAVES                     01300308790000000000002480000000000                      
0336579300008U 020000000000000000000000000000000000000000000000000000000000000000000000000000000000000000000000000000000000000000000000002302201623022016000000000000000000000000000                              000                           
0336579300009T 02345170130030879        00000001648872003940-06      0503201600000000003950003334517                         002000012046365755CAMILA MOURA RODRIGUES                  01300308790000000000002480000000000                      
0336579300010U 020000000000000000000000000000000000000000000000000000000000000000000000000000000000000000000000000000000000000000000000002302201623022016000000000000000000000000000                              000                           
0336579300011T 02345170130030879        00000001648952004005-06      0503201600000000003950003334517                         002000012479198707CARLA CATHY F. CUNHA                    01300308790000000000002480000000000                      
0336579300012U 020000000000000000000000000000000000000000000000000000000000000000000000000000000000000000000000000000000000000000000000002302201623022016000000000000000000000000000                              000                           
0336579300013T 02345170130030879        00000001649092003941-06      0503201600000000003950003334517                         002000013784057730DOUGLAS FERNANDO R. SILVA               01300308790000000000002480000000000                      
0336579300014U 020000000000000000000000000000000000000000000000000000000000000000000000000000000000000000000000000000000000000000000000002302201623022016000000000000000000000000000                              000                           
0336579300015T 02345170130030879        00000001649172003942-06      0503201600000000003950003334517                         002000013187876706EDSON MUNIS DA SILVA JR.                01300308790000000000002480000000000                      
0336579300016U 020000000000000000000000000000000000000000000000000000000000000000000000000000000000000000000000000000000000000000000000002302201623022016000000000000000000000000000                              000                           
0336579300017T 02345170130030879        00000001649252003594-06      0503201600000000003750003334517                         002000005847139756ELIZABETH DE SOUZA S. T. ARAUJO         01300308790000000000002480000000000                      
0336579300018U 020000000000000000000000000000000000000000000000000000000000000000000000000000000000000000000000000000000000000000000000002302201623022016000000000000000000000000000                              000                           
0336579300019T 02345170130030879        00000001649332003944-06      0503201600000000003950003334517                         002000014771112711HABNER DE FREITAS BORGES                01300308790000000000002480000000000                      
0336579300020U 020000000000000000000000000000000000000000000000000000000000000000000000000000000000000000000000000000000000000000000000002302201623022016000000000000000000000000000                              000                           
0336579300021T 02345170130030879        00000001649412003945-06      0503201600000000003950003334517                         002000013267262771JAMILLY GOMES M. MENDONCA               01300308790000000000002480000000000                      
0336579300022U 020000000000000000000000000000000000000000000000000000000000000000000000000000000000000000000000000000000000000000000000002302201623022016000000000000000000000000000                              000                           
0336579300023T 06345170130030879        00000001649412003945-06      0503201600000000003950003316810                         002000013267262771JAMILLY GOMES M. MENDONCA               01300308790000000000000000300000000                      
0336579300024U 060000000000000000000000000000000000000000000000000000000000000000000000395000000000000395000000000000000000000000000000002302201625022016000000000000000000000000000                              000                           
0336579300025T 02345170130030879        00000001649842003947-06      0503201600000000003950003334517                         002000012854269756JOANA PAULA V. AUGUSTO                  01300308790000000000002480000000000                      
0336579300026U 020000000000000000000000000000000000000000000000000000000000000000000000000000000000000000000000000000000000000000000000002302201623022016000000000000000000000000000                              000                           
0336579300027T 02345170130030879        00000001649922003949-06      0503201600000000003950003334517                         002000004325193197KAROLLINE CHAVES LUERCIO                01300308790000000000002480000000000                      
0336579300028U 020000000000000000000000000000000000000000000000000000000000000000000000000000000000000000000000000000000000000000000000002302201623022016000000000000000000000000000                              000                           
0336579300029T 02345170130030879        00000001650182003658-06      0503201600000000003750003334517                         002000012098316780LAIS SANTIAGO F. VILAR                  01300308790000000000002480000000000                      
0336579300030U 020000000000000000000000000000000000000000000000000000000000000000000000000000000000000000000000000000000000000000000000002302201623022016000000000000000000000000000                              000                           
0336579300031T 02345170130030879        00000001650262003951-06      0503201600000000003950003334517                         002000012131710755LARISSA BARROSO A. SILVA                01300308790000000000002480000000000                      
0336579300032U 020000000000000000000000000000000000000000000000000000000000000000000000000000000000000000000000000000000000000000000000002302201623022016000000000000000000000000000                              000                           
0336579300033T 02345170130030879        00000001650342003720-06      1003201600000000003750003334517                         002000005890223771LETICIA GRILLO PEREIRA                  01300308790000000000002480000000000                      
0336579300034U 020000000000000000000000000000000000000000000000000000000000000000000000000000000000000000000000000000000000000000000000002302201623022016000000000000000000000000000                              000                           
0336579300035T 02345170130030879        00000001650502003953-06      0503201600000000003950003334517                         002000013040185713MAGNO DE OLIVEIRA RODRIGUES             01300308790000000000002480000000000                      
0336579300036U 020000000000000000000000000000000000000000000000000000000000000000000000000000000000000000000000000000000000000000000000002302201623022016000000000000000000000000000                              000                           
0336579300037T 02345170130030879        00000001650692003660-06      0503201600000000003750003334517                         002000013429018781MAIRA CRISTINA B. SANTOS                01300308790000000000002480000000000                      
0336579300038U 020000000000000000000000000000000000000000000000000000000000000000000000000000000000000000000000000000000000000000000000002302201623022016000000000000000000000000000                              000                           
0336579300039T 02345170130030879        00000001650772003089-06      0503201600000000003750003334517                         002000012713955769MARIA LINDALVA O. LIMA FILHA            01300308790000000000002480000000000                      
0336579300040U 020000000000000000000000000000000000000000000000000000000000000000000000000000000000000000000000000000000000000000000000002302201623022016000000000000000000000000000                              000                           
0336579300041T 02345170130030879        00000001650852003954-06      0503201600000000003950003334517                         002000014329487764NATHALIA MACEDO M. SOUZA                01300308790000000000002480000000000                      
0336579300042U 020000000000000000000000000000000000000000000000000000000000000000000000000000000000000000000000000000000000000000000000002302201623022016000000000000000000000000000                              000                           
0336579300043T 02345170130030879        00000001650932003956-06      0503201600000000003950003334517                         002000013749861781PATRICIA SANTOS DA COSTA                01300308790000000000002480000000000                      
0336579300044U 020000000000000000000000000000000000000000000000000000000000000000000000000000000000000000000000000000000000000000000000002302201623022016000000000000000000000000000                              000                           
0336579300045T 02345170130030879        00000001651072003957-06      0503201600000000003950003334517                         002000014312973725PAULA CRISTINA C. NEVES                 01300308790000000000002480000000000                      
0336579300046U 020000000000000000000000000000000000000000000000000000000000000000000000000000000000000000000000000000000000000000000000002302201623022016000000000000000000000000000                              000                           
0336579300047T 02345170130030879        00000001651152003958-06      0503201600000000003950003334517                         002000013439267776PEDRO RODRIGUES DO CARMO                01300308790000000000002480000000000                      
0336579300048U 020000000000000000000000000000000000000000000000000000000000000000000000000000000000000000000000000000000000000000000000002302201623022016000000000000000000000000000                              000                           
0336579300049T 02345170130030879        00000001651402003836-06      0503201600000000003750003334517                         002000012663665711SUELLEN NAYARA R. CAMPELO               01300308790000000000002480000000000                      
0336579300050U 020000000000000000000000000000000000000000000000000000000000000000000000000000000000000000000000000000000000000000000000002302201623022016000000000000000000000000000                              000                           
0336579300051T 02345170130030879        00000001651582003835-06      0503201600000000003750003334517                         002000013092946740THAINARA CRISTINA A. GONCALVES          01300308790000000000002480000000000                      
0336579300052U 020000000000000000000000000000000000000000000000000000000000000000000000000000000000000000000000000000000000000000000000002302201623022016000000000000000000000000000                              000                           
0336579300053T 02345170130030879        00000001651662003962-06      1003201600000000002380003334517                         002000000479416184THATIANE DE JESUS PINTO                 01300308790000000000002480000000000                      
0336579300054U 020000000000000000000000000000000000000000000000000000000000000000000000000000000000000000000000000000000000000000000000002302201623022016000000000000000000000000000                              000                           
0336579300055T 02345170130030879        00000001651742003964-06      0503201600000000003950003334517                         002000012298873771TIAGO SOARES V. SILVA                   01300308790000000000002480000000000                      
0336579300056U 020000000000000000000000000000000000000000000000000000000000000000000000000000000000000000000000000000000000000000000000002302201623022016000000000000000000000000000                              000                           
0336579300057T 02345170130030879        00000001651822003965-06      0503201600000000003950003334517                         002000013120448702VANESSA AREBRA K. K. MARINS             01300308790000000000002480000000000                      
0336579300058U 020000000000000000000000000000000000000000000000000000000000000000000000000000000000000000000000000000000000000000000000002302201623022016000000000000000000000000000                              000                           
0336579300059T 02345170130030879        00000001652042003967-06      0503201600000000003950003334517                         002000012947639707WENDEL CESAR R. F. MATOS                01300308790000000000002480000000000                      
0336579300060U 020000000000000000000000000000000000000000000000000000000000000000000000000000000000000000000000000000000000000000000000002302201623022016000000000000000000000000000                              000                           
0336579300061T 02345170130030879        00000001652122003677-06      0503201600000000003750003334517                         002000012624933743YGOR MALCHER DOS S. COSTA               01300308790000000000002480000000000                      
0336579300062U 020000000000000000000000000000000000000000000000000000000000000000000000000000000000000000000000000000000000000000000000002302201623022016000000000000000000000000000                              000                           
0336579300063T 03345170130030879        00000001648792003939-06      0503201600000000003950003334517                         002000014296363786BRUNA VIEIRA CHAVES                     01300308790000000000000004700000000                      
0336579300064U 030000000000000000000000000000000000000000000000000000000000000000000000000000000000000000000000000000000000000000000000002302201623022016000000000000000000000000000                              000                           
0336579300065T 03345170130030879        00000001649502003265-06      0503201600000000003500003334517                         002000012317988745JANAINA CALIAN PINHEIRO                 01300308790000000000000004700000000                      
0336579300066U 030000000000000000000000000000000000000000000000000000000000000000000000000000000000000000000000000000000000000000000000002302201623022016000000000000000000000000000                              000                           
0336579300067T 03345170130030879        00000001649682003946-06      0503201600000000003950003334517                         002000013887988752JAQUELINE MUNIZ MORENO                  01300308790000000000000004700000000                      
0336579300068U 030000000000000000000000000000000000000000000000000000000000000000000000000000000000000000000000000000000000000000000000002302201623022016000000000000000000000000000                              000                           
0336579300069T 03345170130030879        00000001649762003266-06      0503201600000000003950003334517                         002000012839382784JESSICA APARECIDA L. B. ROSA            01300308790000000000000004700000000                      
0336579300070U 030000000000000000000000000000000000000000000000000000000000000000000000000000000000000000000000000000000000000000000000002302201623022016000000000000000000000000000                              000                           
0336579300071T 03345170130030879        00000001650002003950-06      0503201600000000003950003334517                         002000015478284718KISSIA CAMILA B. R. SILVA               01300308790000000000000004700000000                      
0336579300072U 030000000000000000000000000000000000000000000000000000000000000000000000000000000000000000000000000000000000000000000000002302201623022016000000000000000000000000000                              000                           
0336579300073T 03345170130030879        00000001650422003952-06      0503201600000000003950003334517                         002000013312009707MAGNA DE ANDRADE PIREDA                 01300308790000000000000004700000000                      
0336579300074U 030000000000000000000000000000000000000000000000000000000000000000000000000000000000000000000000000000000000000000000000002302201623022016000000000000000000000000000                              000                           
0336579300075T 03345170130030879        00000001651232003959-06      0503201600000000002950003334517                         002000012455128709RODRIGO CORREA FREIRE                   01300308790000000000000004700000000                      
0336579300076U 030000000000000000000000000000000000000000000000000000000000000000000000000000000000000000000000000000000000000000000000002302201623022016000000000000000000000000000                              000                           
0336579300077T 03345170130030879        00000001651312003961-06      0503201600000000003950003334517                         002000013675260780SARA CAROLINA M. CRUZ                   01300308790000000000000004700000000                      
0336579300078U 030000000000000000000000000000000000000000000000000000000000000000000000000000000000000000000000000000000000000000000000002302201623022016000000000000000000000000000                              000                           
0336579300079T 03345170130030879        00000001651902003966-06      0503201600000000003950003334517                         002000013078646785VINICIO DA SILVA PAULO                  01300308790000000000000004700000000                      
0336579300080U 030000000000000000000000000000000000000000000000000000000000000000000000000000000000000000000000000000000000000000000000002302201623022016000000000000000000000000000                              000                           
03365795         0000800000290000000000111380000000000000000000000000000000000000000000000000000000000000000000000000000001                                                                                                                     
03365799         000001000084                                                                                                                                                                                                                   
